:03000000021A06DB
:0C1A0600787FE4F6D8FD758145021A4D8A
:101DF600426C7565746F6F746820616C726561649E
:101E060079206C696E6B65640D0A004552524F521B
:101E16003A204C75785B25645D006C75783A202510
:101E26003464004C696768743A2025326420706512
:0A1E36007200427452656164790085
:101F1A00C196C117C11AC119C118C114C113C1157B
:081F2A00020800000212000091
:10064E00C2A01221DD12218B12211312000E1221D3
:10065E004E12219CD2AF121C237BFF7A1D79F6120B
:02066E001FE883
:100670007F01121CF58E0A8F0B7F02121CF58E0C67
:100680008F0D7F03121CF58E0E8F0F7F04121CF549
:100690008E108F117F787E001220D2781BE2FE0828
:1006A000E2FF7813E2FC08E2FD7823E2FA08E2FBBD
:1006B0007821E2F58308E2F5827834E583F208E5F3
:1006C00082F2781DE2F58308E2F5827836E583F25E
:1006D00008E582F27819E2F58308E2F5827838E5D8
:1006E00083F208E582F2781FE2F58308E2F582786A
:1006F0003AE583F208E582F27817E2F58308E2F53D
:1007000082783CE583F208E582F27815E2F5830809
:10071000E2F582783EE583F208E582F212162FEFC9
:100720004E6004D2148009301C04D2148002C2141A
:0607300020160302085927
:10073600E47828F208F2C200781BE2FE08E2FF78AD
:1007460013E2FC08E2FD7823E2FA08E2FB7835E4DE
:10075600F20804F2121E91E47828F208F27828E2F0
:10076600FE08E2FFC39404EE648094805054EF25A3
:10077600E0240AF8E6FE08E664547003EE64D570D9
:1007860034786174FFF208741EF2087411F2782945
:10079600E224017965F318E2340019F37B007A004C
:1007A6007924120BC47B007A007924E4FDFF121E23
:1007B60040D200800D7829E22401F218E23400F2DA
:1007C600809B200063E50B250DFFE50A350CFEE551
:1007D6000F2FFFE50E3EFEE5112FFDE5103EFCE472
:1007E6001200CB8F3B8E3A8D398C38E4FBFA798038
:1007F60078401200291201048E148F15786174FF57
:10080600F208741EF2087420F208E514F208E515E1
:10081600F27B007A007924120BC47B007A007924DB
:10082600E4FDFF121E40D219786174FFF208741EAF
:10083600F2087429F208E512F208E513F27B007A51
:10084600007924120BC47B007A0079247D02E4FF30
:03085600121E402F
:10085900301B193016167F987E3A1220D27BFF7A08
:100869001E79387D03E4FF121E40C21B121C9378C7
:1008790027EFF26061E264307021201A11B217305B
:100889001707C21612201C8005D216121C23301A13
:100899000AC21A1221AD12201CD2177827E2B431EC
:1008A9000B301708201A051217EAD21A7827E2B472
:1008B900320B301708201A051218ACD21A7827E221
:1008C900B4330B301708201A05121722D21A7827C9
:1008D900E2B43402B218201803020B0320140302F5
:1008E9000B032013797825E4F208747DF21808E2E5
:1008F900FF1221C27F887E131220D27F01121CF5BC
:100909008E0A8F0B7F02121CF58E0C8F0D7F03123E
:100919001CF58E0E8F0F7F04121CF58E108F11E5BA
:100929000B250DFFE50A350CFEE50F2FFFE50E3E01
:10093900FEE5112FFDE5103EFCE41200CB8F3B8E46
:100949003A8D398C38E4FBFA798078401200291203
:1009590001048E148F15851408851509D2132019E1
:1009690003020AEC201303020AECAE08AF097C006B
:100979007D5C12057D7D6412058FC3E5159FE51425
:100989009E4019AE08AF097C007D6C12057D7D641F
:1009990012058FD3E5159FE5149E4002D215201547
:0409A90003020AEC4F
:1009AD00AE08AF097C007D6112057D7D6412058F57
:1009BD007828EEF2FA08EFF2FBAE08AF097C007D65
:1009CD006712057D7D6412058F782AEEF208EFF22D
:1009DD00E408F208F2C3E5159BE5149A507BC37841
:1009ED0029E29515FF18E29514FE7C007D0A12058B
:1009FD008F782CEEF208EFF2D3940AEE6480948097
:100A0D0040067E007F0A801B782CE2FE08E2FFC3C1
:100A1D009401EE64809480500A7C007D017E007FFD
:100A2D00018000782CEEF208EFF27826E22FFF1805
:100A3D00E23EFED3EF94FFEE94005013782CE2FECD
:100A4D0008E2FF7826E22FF218E23EF2020AE4787D
:100A5D0025E4F20874FFF2807E782AE2FE08E2FFB8
:100A6D00C39515EE9514506DC3E5159FFFE5149EC6
:100A7D00FE7C007D0A12058F782CEEF208EFF2D382
:100A8D00940AEE6480948040067E007F0A801B7875
:100A9D002CE2FE08E2FFC39401EE64809480500ABC
:100AAD007C007D017E007F018000782CEEF208EF46
:100ABD00F2C37826E29F18E29E4012782CE2FE08DF
:100ACD00E2FF7826E29FF218E29EF2800AE4782592
:0F0ADD00F208F28002C215782508E2FF1221C24A
:100AEC007825E2FE08E2FF7C007D6412057D7DFF27
:100AFC0012058F8E128F1330183B2014387825E492
:100B0C00F208747DF21808E2FF1221C27825E2FE89
:100B1C0008E2FF7C007D6412057D7DFF12058F8E3F
:100B2C00128F137F887E131220D2C218C213C215E3
:100B3C00E4F508F50920181AE47825F208F21808EB
:100B4C00E2FF1221C2E4F508F509F512F513C21300
:090B5C00C2157FE87E031220D2CD
:030B650002067015
:1014ED004F6E2054696D652041646A00456E7465C8
:1014FD0072204F6E2041646A204D6F64650D0A00A5
:10150D0045786974204F6E2041646A204D6F646583
:10151D000D0A004F66662054696D652041646A00AE
:10152D00456E746572204F66662041646A204D6F6A
:10153D0064650D0A0045786974204F666620416424
:10154D006A204D6F64650D0A004E6F772054696DEA
:10155D00652041646A00456E746572204375727230
:10156D00656E742041646A204D6F64650D0A0045F7
:10157D007869742043757272656E742041646A20B7
:10158D004D6F64650D0A00486F75722061646420AB
:10159D003168004F6E2054696D653A200025643A1C
:1015AD0025643A25640D0A004F66662054696D6501
:1015BD003A200043757272656E742054696D653AF8
:1015CD0020004D696E2061646420316D696E004F9D
:1015DD006E4F66664C696768740057616974696E11
:1015ED0067204F6E2E2E2E0057616974696E67202D
:1015FD004F66662E2E2E00537973496E666F5265B7
:10160D007475726E002564003A000D0A004C69670E
:10161D0068743A2000256420706572004C75783A24
:02162D0020009B
:051F3200C11B8100301D
:10000E0075985053890F438920758DFD758BFDD2E0
:04001E008ED2AC22B0
:080003008F993099FDC299228A
:061FE2007BFE7A0079018C
:101FE800785EEBF208EAF208E9F2785EE2FB08E2D2
:101FF800FA08E2F9120525601A785EE2FB0808E2A1
:10200800F92401F218E2FA3400F2120525FF120051
:042018000380D72248
:03002300020FD6F3
:100FD600C0E0C0F0C083C082C0D075D000C000C0E1
:100FE60001C002C003C004C005C006C007209803A4
:100FF6000212AAC298AF99EF24BFB40900400302B7
:1010060012A890101675F003A4C58325F0C5837346
:1010160002103102105F02108D0210C40211370255
:1010260012950212A80212A802126530160D7BFF55
:101036007A1479ED7D03E4FF121E407800E26431F4
:101046007BFF600F7A1479F9121FE878007431F289
:101056000212A87A15790D805A30160D7BFF7A1583
:1010660079207D03E4FF121E407800E264327BFFA4
:10107600600F7A15792D121FE878007432F2021289
:10108600A87A157942802C30160D7BFF7A15795691
:101096007D03E4FF121E407800E264337BFF600F9D
:1010A6007A157963121FE878007433F20212A87A6F
:1010B60015797C121FE878007430F20212A83016F7
:1010C600147800E26430600D7BFF7A1579947D0315
:1010D600E4FF121E407800E2643170167822E224A2
:1010E60001FF18E23400FE7C007D1812058F78217E
:1010F60080717800E2643270177820E22401FF18CC
:10110600E23400FE7C007D1812058F781F0211BEA6
:101116007800E2643360030212A8781CE22401FF1F
:1011260018E23400FE7C007D1812058F781B02122F
:10113600153016147800E26430600D7BFF7A15795D
:10114600CF7D03E4FF121E407800E26431704E78D2
:101156001EE22401FF18E23400FE7C007D3C1205ED
:101166008F781DECF208EDF27BFF7A1579A0121F3D
:10117600E8786174FFF2087415F20874AAF278210F
:10118600E2FF08E27864CFF208EFF2781DE2FF088A
:10119600E27866CFF208EFF2781902124C7800E294
:1011A6006432704D7818E22401FF18E23400FE7CA8
:1011B600007D3C12058F7817ECF208EDF27BFF7A82
:1011C6001579B5121FE8786174FFF2087415F208F4
:1011D60074AAF2781FE2FF08E27864CFF208EFF211
:1011E6007817E2FF08E27866CFF208EFF27815800A
:1011F600557800E2643360030212A87814E22401F1
:10120600FF18E23400FE7C007D3C12058F7813EC5B
:10121600F208EDF27BFF7A1579C0121FE878617447
:10122600FFF2087415F20874AAF2781BE2FF08E2CE
:101236007864CFF208EFF27813E2FF08E27866CF1F
:10124600F208EFF27823E2FF08E27868CFF208EFBF
:10125600F27BFE7A007901120BC4121FE280433042
:10126600160D7BFF7A1579DC7D03E4FF121E40B272
:101276001830180B7BFF7A1579E7121FE8D21C206D
:1012860018207BFF7A1579F5121FE8C21C801330EF
:10129600160D7BFF7A1679047D03E4FF121E4012B9
:1012A60012C5D21BD007D006D005D004D003D00279
:0F12B600D001D000D0D0D082D083D0F0D0E032A1
:1012C5007BFF7A1579C0121FE8786174FFF2087404
:1012D50016F2087412F2781BE2FF08E27864CFF286
:1012E50008EFF27BFE7A007901120BC4121FE27B34
:1012F500FF7A167915121FE8786174FFF2087416E3
:10130500F2087412F27813E2FF08E27864CFF2086B
:10131500EFF27BFE7A007901120BC4121FE27BFF0C
:101325007A167915121FE8786174FFF2087416F2BF
:10133500087412F27823E2FF08E27864CFF208EF2E
:10134500F27BFE7A007901120BC4121FE27BFF7A51
:10135500167917121FE87BFF7A1579A0121FE87816
:101365006174FFF2087416F2087412F27821E2FF34
:1013750008E27864CFF208EFF27BFE7A0079011279
:101385000BC4121FE27BFF7A167915121FE87861EC
:1013950074FFF2087416F2087412F2781DE2FF0861
:1013A500E27864CFF208EFF27BFE7A007901120B46
:1013B500C4121FE27BFF7A167915121FE878617453
:1013C500FFF2087416F2087412F27819E2FF08E2C7
:1013D5007864CFF208EFF27BFE7A007901120BC434
:1013E500121FE27BFF7A167917121FE87BFF7A1529
:1013F50079B5121FE8786174FFF2087416F2087463
:1014050012F2781FE2FF08E27864CFF208EFF27B70
:10141500FE7A007901120BC4121FE27BFF7A16795E
:1014250015121FE8786174FFF2087416F208741239
:10143500F27817E2FF08E27864CFF208EFF27BFE5C
:101445007A007901120BC4121FE27BFF7A16791517
:10145500121FE8786174FFF2087416F2087412F22C
:101465007815E2FF08E27864CFF208EFF27BFE7AA6
:10147500007901120BC4121FE27BFF7A167917124D
:101485001FE87BFF7A16791A121FE8786174FFF25C
:10149500087416F2087422F208E512F208E513F250
:1014A5007BFE7A007901120BC4121FE27BFF7A16CC
:1014B5007917121FE87BFF7A167929121FE87861E0
:1014C50074FFF2087416F2087412F208E514F208B3
:1014D500E515F27BFE7A007901120BC4121FE27B3F
:0814E500FF7A167917021FE8D7
:0720CB001221697F017E0074
:1020D200D3EF9400EE940040147D6E7C00ED1D70F1
:0D20E200011CED4C70F7EF1F70E61E80E34F
:0120EF0022CE
:07207C00122083ED54F0FF78
:10208300E4FEEEC39408748094805014C2B6EF301B
:10209300E7028001C392B7EF25E0FFD2B60E80E2DC
:0120A300221A
:10216900AD077FF812207CED540FC454F0FF022014
:0121790083E2
:10217A00AD077FFA12207CED540FC454F0FF022001
:01218A0083D1
:102113007F327E001220D27F301220CB7F0C122020
:10212300CB7F011221697F0A7E001220D20221ADEA
:10204F00ED7006EF2480FC801FED64017006EF2415
:10205F0090FC8014ED64027006EF2488FC8009ED7B
:0D206F0064037004EF2498FCAF04022169A3
:101E4000785EEFF27860EBF208EAF208E9F2785F88
:101E5000EDF2FF122133785EE2FF08E2FD12204F1F
:101E60007860E2FB08E2FA08E2F9120525601A78C8
:101E700060E2FB0808E2F92401F218E2FA3400F209
:0A1E8000120525FF12217A80D722F7
:0821CB0012204FAF0302217A3C
:10213300E4FBAD07FF12204FEBC39410748094802F
:0A21430050087F2012217A0B80EE75
:01214D00226F
:0C21AD007F011221697F0A7E000220D20F
:101F3700821B0012821300008223000082210012FC
:101F4700821D001E82190000821F001782170000E1
:081F5700821500008211000058
:10218B005389F0438901758CFC758A66D2A9D28C70
:01219B002221
:03000B00021BA530
:091BA500C0E0C0D075D000C00002
:101BAE00758CFC758A667812E22401F218E2340014
:101BBE00F2C308E294E818E294034052E4F208F209
:101BCE007824E22401F218E23400F2C308E2943CD5
:101BDE0018E294004038E4F208F27814E22401F29C
:101BEE0018E23400F2C308E2943C18E29400401E5E
:101BFE00E4F208F2781CE22401F218E23400F2C397
:0E1C0E0008E2941818E294004004E4F208F290
:071C1C00D000D0D0D0E0326F
:0521D300C2A9C28C222C
:0521D800D28CD2A92207
:0421DD007580FF22E8
:101C93002080107F147E001220D22080063080FD29
:101CA3007F30222081107F147E001220D2208106F3
:101CB3003081FD7F31222082107F147E001220D2DA
:101CC3002082063082FD7F32222083107F147E0023
:101CD3001220D22083063083FD7F33222084107F9D
:101CE300147E001220D22084063084FD7F34227FAC
:021CF3000022CD
:10196E0054696D653A253032753A253032753A250F
:10197E00303275004C75783A20004C696768743ABD
:10198E002000427452656164790054696D6520418E
:10199E00646A757374204D656E75006B6579313AA6
:1019AE004F6E2041646A757374006B6579323A4FDD
:1019BE0066662041646A757374006B6579333A4EBE
:1019CE006F772041646A757374004F6E2041646AAC
:1019DE00757374007072657373203020616761696E
:1019EE006E004F66662041646A757374004E6F77A1
:0819FE002041646A7573740056
:101C2300786174FFF2087419F208746EF2781BE29B
:101C3300FF08E27864CFF208EFF27813E2FF08E2DC
:101C43007866CFF208EFF27823E2FF08E27868CFF4
:101C5300F208EFF27BFE7A00792E120BC47BFF7A37
:101C6300197982E4FDFF121E407BFE7A00792E7DF6
:101C730001E4FF121E407BFF7A1979887D02E4FF9D
:101C8300121E407BFF7A1979907D03E4FF021E4008
:071E8A007835E4F20804F2D0
:041E91008B828A8333
:101E9500786174FFF2087419F208746EF208EEF2B4
:101EA50008EFF2AF0508ECF208EFF2AE83AF820857
:101EB500EEF208EFF27BFE7A007937120BC4783523
:0E1EC50008E2FD7BFE7A007937E4FF021E4042
:10201C007BFF7A197998E4FDFF121E407BFF7A1939
:10202C0079A97D01E4FF121E407BFF7A1979B87DF6
:10203C0002E4FF121E407BFF7A1979C87D03E4FF8E
:03204C00021E4031
:1017EA001221AD7BFF7A1979D8E4FDFF121E4078E9
:0717FA0021E2FE08E2802756
:10180100121C93782EEFF260F7E2B431247822E2D1
:101811002401FF18E23400FE7C007D1812058F7848
:1018210021ECF2FE08EDF2FF781DE2FC08E2FD80FA
:1018310026782EE2B43229781EE22401FF18E23420
:1018410000FE7C007D3C12058F781DECF208EDF264
:101851007821E2FE08E2FF7819E2FA08E2FB802F24
:10186100782EE2B4332F781AE22401FF18E2340013
:10187100FE7C007D3C12058F7819ECF2FA08EDF23E
:10188100FB7821E2FE08E2FF781DE2FC08E2FD128E
:101891001E8A021801782EE2643060030218017B6F
:0B18A100FF7A1979E27D02FF021E4071
:1018AC001221AD7BFF7A1979F0E4FDFF121E40780E
:0718BC001FE2FE08E2802795
:1018C300121C93782EEFF260F7E2B431247820E211
:1018D3002401FF18E23400FE7C007D1812058F7886
:1018E3001FECF2FE08EDF2FF7817E2FC08E2FD8040
:1018F30026782EE2B432297818E22401FF18E23464
:1019030000FE7C007D3C12058F7817ECF208EDF2A7
:10191300781FE2FE08E2FF7815E2FA08E2FB802F67
:10192300782EE2B4332F7816E22401FF18E2340054
:10193300FE7C007D3C12058F7815ECF2FA08EDF27F
:10194300FB781FE2FE08E2FF7817E2FC08E2FD12D3
:101953001E8A0218C3782EE2643060030218C37B28
:0B196300FF7A1979E27D02FF021E40AE
:101722001221D31221AD7BFF7A1979FBE4FDFF125E
:0A1732001E40781BE2FE08E280274B
:10173C00121C93782EEFF260F7E2B43124781CE29D
:10174C002401FF18E23400FE7C007D1812058F780E
:10175C001BECF2FE08EDF2FF7813E2FC08E2FD80D0
:10176C0026782EE2B432297814E22401FF18E234F0
:10177C0000FE7C007D3C12058F7813ECF208EDF234
:10178C00781BE2FE08E2FF7823E2FA08E2FB802FE6
:10179C00782EE2B4332F7824E22401FF18E23400CF
:1017AC00FE7C007D3C12058F7823ECF2FA08EDF2FA
:1017BC00FB781BE2FE08E2FF7813E2FC08E2FD1264
:1017CC001E8A02173C782EE26430600302173C7BC1
:0B17DC00FF7A1979E27D02FF121E4027
:0317E7000221D804
:07162F00782EEEF208EFF245
:10163600AE04AF057C007D3C12057D8E838F8278DB
:101646002EE2FE08E2FF7C0E7D1012057DEF25825C
:10165600FFEE3583FEEF2BFFEE3AFEE4FCFD78400D
:101666001206037836E2FE08E2FF7C007D3C120596
:101676007DAA06AB077834E2FE08E2FF7C0E7D10F9
:1016860012057DEF2BFFEE3AFE7839E22FFF18E2C6
:101696003EFEE4FCFD7844120603783CE2FE08E2D6
:1016A600FF7C007D3C12057DAA06AB07783AE2FE78
:1016B60008E2FF7C0E7D1012057DEF2BFFEE3AFE51
:1016C600783FE22FFF18E23EFEE4FCFD7848120662
:1016D600037844E2FC08E2FD08E2FE08E2FF7840F7
:1016E600E2FB08E2F908E2FA08E2CBF8C31205F2D7
:1016F60040267848E2FC08E2FD08E2FE08E2FF78B0
:1017060040E2FB08E2F908E2FA08E2CBF8D3120558
:0B171600F250057E007F0122E4FEFF80
:0117210022A5
:101ED300782EEFF21220F0782EE2FF121DAB782E4F
:101EE300E2FF7D46121A92782EE2FF7D01121A92CA
:101EF300782EE2FF121FA5782EE2FF121DAB782E7B
:101F0300E2FF7D46121A92782EE2FF7D10121A929A
:071F1300782EE2FF021FA57A
:041CF500782EEFF264
:101CF900121DAB782EE2FF7D47121A92782EE2FF71
:101D0900121B1E782FEFF218E2FFC201121F607832
:101D19002EE2FF121B1E7830EFF2782EE2FFD2017D
:101D2900121F60782EE2FF121FA5782FE2FE08E24B
:101D3900FDEDFFAC06E41200CB7B9A7A997999788C
:071D49003F12002902010412
:10214E007F01121ED37F02121ED37F03121ED37F76
:0B215E0004121ED37F787E000220D206
:0821B9007F0AAE071FEE70FA69
:0121C10022FB
:1020F000EF24FE600F14601114601324037013D2D8
:1021000090D29122D292D29522D296D29722D2A167
:03211000D2A22236
:101DAB00EF24FE60191460251460312403703BD2BC
:101DBB0091D2901221B9C2911221B9C29022D2951F
:101DCB00D2921221B9C2951221B9C29222D297D2C4
:101DDB00961221B9C2971221B9C29622D2A2D2A1D0
:0B1DEB001221B9C2A21221B9C2A1222C
:101FA500EF24FE601514601D1460252403702DC2F6
:101FB50091D2901221B9D291801FC295D29212214D
:101FC500B9D2958014C297D2961221B9D2978009B9
:0D1FD500C2A2D2A11221B9D2A21221B922BA
:101F6000EF24FE601714602114602B24037035A247
:101F7000019291D2901221B9C2908025A20192952E
:101F8000D2921221B9C2928018A2019297D29612CF
:101F900021B9C296800BA20192A2D2A11221B9C28C
:051FA000A11221B9228D
:101D5000EF24FE601C14602B14603A24037049D2F7
:101D6000911221B9D2901221B9A2919201C2908010
:101D700034D2951221B9D2921221B9A2959201C200
:101D8000928022D2971221B9D2961221B9A29792AB
:101D900001C2968010D2A21221B9D2A11221B9A2F9
:0A1DA000A29201C2A11221B9A20112
:011DAA002216
:021A9200AC079F
:101A9400E4FBEBC39408748094805079EC24FE60DA
:101AA4001614601F1460282403702EED30E703D34E
:101AB4008001C392918022ED30E703D38001C39269
:101AC400958016ED30E703D38001C39297800AED29
:101AD40030E703D38001C392A2ED25E0FDEC24FEA0
:101AE400601314601914601F24037025D29012210E
:101AF400B9C2908019D2921221B9C2928010D296A2
:101B04001221B9C2968007D2A11221B9C2A1122111
:0A1B1400B90B021A96AF04021D502F
:021B1E00AD0711
:101B2000E4FCED24FE600E14600F146010240370BA
:101B30000ED291800AD2958006D2978002D2A2E47A
:101B4000FBEBC39408748094805057EC25E0FCEDC7
:101B500024FE601A14602714603424037041D2906C
:101B60001221B9309104EC4401FCC290802ED29233
:101B70001221B9309504EC4401FCC292801ED29629
:101B80001221B9309704EC4401FCC296800ED2A118
:101B90001221B930A204EC4401FCC2A11221B90BFC
:041BA000809FAF046F
:011BA400221E
:10219C0075D902E4F5FAF5EA75DA42D2DEFF0221CE
:0121AC00C270
:0921C200C374FF9FF5FAF5EA224F
:1000260002017AEC5D046005E85904700302017070
:1000360012013B580460F6EC4860F2EC7004FDFED9
:10004600FF22C860DB2481C85009C39860025006AD
:100056000201779850CAF582E9294B4A7005AB82AE
:1000660002016675F0007C1A7880C3EF9BEE9AED6C
:1000760099400DC3EF9BFFEE9AFEED99FDE842F025
:10008600DC23ACF0D0E0FFD0E0FED0E0FDAB822078
:10009600E7101BEB60BAEC2CFCEF33FFEE33FEED02
:1000A60033FD020152E803F830E705C0F075F000B1
:1000B600EF2FFFEE33FEED33FD40B830E7C280AAE6
:1000C60075F020800E75F010800575F0087D007EB5
:1000D600007F003392D530D5031205E4EC3340108F
:1000E600EF33FFEE33FEED33FDEC33FCD5F0ED22BE
:0E00F600E5F0247EA2D513CC92E7CDCEFF22FA
:10010400EDD2E7CD33EC3392D524814006E4FFFEF3
:10011400FDFC22FCE4CFCECDCC24E0501174FF8052
:10012400EDC3CC13CCCD13CDCE13CECF13CF0470EF
:07013400F030D5DE0205E406
:100B6800E5412461F8E2054122785E30110278619E
:100B7800E475F00112060F020525200AEB7F2ED23C
:100B88000A8018EF540F2490D43440D4FF300E0B51
:100B9800EF24BFB41A0050032461FFE54260021538
:100BA800420545E5457002054430110D785EE4754F
:100BB800F00112060FEF02056B0220A47403D21194
:100BC8008003E4C211F541785E12061FE4F542F590
:100BD80044F545E54260077F20120BA380F5754375
:100BE800FFC20BC20AC20CC20DC20FC210C212123F
:100BF8000B71FF700D3011057F00120BB4AF45AEBD
:100C08004422B4255FC2D5C20E120B71FF24D0B4A2
:100C18000A00501A75F00A784230D50508B6FF0167
:100C280006C6A426F620D5047002D20D80D924CF9A
:100C3800B41A00EF5004C2E5D20E020EA0D20B8007
:100C4800C6D20A80C0D20C80BCD2D580BAD20F805E
:100C5800B47F20120BA3200C077401B5420040F1A9
:100C6800120B68FF120BA3020BDBD212D210809575
:100C7800120B68FB120B68FA120B68F94A4B7006E4
:100C880079977A0F7BFF200C2EE542602A7E008E32
:100C98008275830012053E60060EEE654370F0C251
:100CA800D5EBC0E0EAC0E0E9C0E0EE120F00D0E00A
:100CB800F9D0E0FAD0E0FB120525FF60AAEBC0E00E
:100CC800EAC0E0E9C0E0120BA3D0E02401F9D0E0CB
:100CD8003400FAD0E0FBE5430460DCD543D98087D3
:100CE800D20C80A2120EE360F7E5437001041201F2
:100CF80085A943600DE543600914F543120F8AEF97
:100D080060F3EA30E702F404C3995077EAF4254324
:100D18000430E701E404F543800D120EE360C1EAF4
:100D280005432543120185EA7874F230E701E4258A
:100D38004304D54304200F0114120F00E4C0E0124D
:100D48000F8A7874E2601320E70714F2120B8B8085
:100D58002204F2D0E014C0E07F00120B8BE5436060
:100D680007120B821543800B300F03120B82D0E061
:100D7800020BDBD0E00480C5120EE360A0E543045B
:100D88001201857874EAF2E543200F026001042419
:0C0D980004120F0074FF04C0E0120F8A68
:100DA400120B8BE543200F026003120B82D0E0B5D7
:100DB40043E87F45120B957874E27F2B30E7047F7C
:100DC4002DF404C0E0120BA3D0E075F00A84C0F047
:100DD400120B8CD0E0120B8C020BDB7910800279A1
:100DE40008C210C2128008D2D5790A8004790AC2D6
:100DF400D5E543047002F543E4FAFDFEFF120B68E7
:100E0400FC7B08200B13120B68FD7B10300A0A12BE
:100E14000B68FE120B68FF7B20EC3382D592D55011
:100E240013C3E4300A069FFFE49EFEE4200B039DF7
:100E3400FDE49CFCE4CBF8C20BEC700CCFCECDCC23
:100E4400E824F8F870F38017C3EF33FFEE33FEEDB8
:100E540033FDEC33FCEB33FB994002FB0FD8E9EB99
:100E6400300B05F8D0E0C448B20BC0E00AEC4D4E9C
:100E74004F78207B0070C2EAB5430040BCC0E0124A
:100E84000F02D0F0D0E0200B04C4C0E0C4B20BC009
:100E9400F0120B8CD0F0D5F0EB020BDB1206280C11
:100EA40078530DDF580C494C0C45420DE34F0DEBC4
:100EB400440DEB490C5E430DF1550D22460D804562
:100EC4000CEC470FB7500C4D2D0C512E0C742B0C01
:100ED40055230C72200FA02A0C0D4800000C6CE561
:100EE40043B4FF03754306120B68FC120B68FD1232
:100EF4000B68FE120B68FF786D0201B4790AA2D563
:100F0400200D14300F09B910020404B9080104A219
:100F1400D5201002500104200C68920CB5420050F8
:100F240034C0E07F20300D197F30A20C7210720F94
:100F3400500F120F59C20CC210C20FC2127F308060
:100F44000F300F03E9C0E0120BA3300F03D0E0F918
:100F5400D0E0B542CC300F177F30B9100C120BA380
:100F64007F58300E077F788003B90803120BA33033
:100F74000C057F2D020BA37F202012F87F2B20105D
:100F8400F322920C80CF7F00B407005005246DF843
:100F9400E2FF22286E756C6C2900D20B120B6830AC
:100FA4000BF8C20B784230D50108F6020C0D2D5017
:100FB400434958120B682403B405004001E4900F20
:100FC400B293120B94743A120B94D20D754204022C
:020FD4000DDF2F
:10013B00E9D2E7C933E833F892D5EDD2E7CD33EC0A
:07014B0033FC5002B2D52283
:10015200EC30E7100FBF000C0EBE00080DBD00040E
:100162000BEB6014A2D5EB13FCED92E7FD2274FFBA
:10017200FCFDFEFF22E480F8A2D574FF13FC7D8013
:03018200E480EF27
:10018500F920E72824F950037907E4F42402FB1841
:10019500DBFDE224FB5014E9600DE4F218E204F201
:0F01A500B40A08E4F2D9F57401F20A22C2D52295
:1001B400ED33EC3392D5FA602AB4FF33EDC2E77B1A
:1001C400FF60067A0179D9E4227A0179E220D50424
:1001D4007A0179DD224E614E002B494E46002D49AD
:1001E4004E4600E47A08F208DAFC7B00740722E841
:1001F400C0E0ECC0E0EDC0E0EEC0E0EFC0E0EA75C6
:10020400F010A4CAABF075F04DA42BFBE435F0FC60
:10021400EA2410FAEB34C5FBEC34D9FCEDC2E7FF59
:1002240075F056A4F42411C5F0F434C58FF0A42A53
:10023400E5F03BE43CF220E7141204E5D0E0FFD003
:10024400E0FED0E0FDD0E0FC1200298014F404129A
:1002540004E5D0E0FFD0E0FED0E0FDD0E0FC1203E6
:10026400AFD0E0F8E2FAEDD2E7CD33EC332482FBF1
:10027400E4C3CF33CFCE33CECD33CD33DBF37B07E3
:1002840075F00A846004F2081B0AE5F0F2088FF0A6
:10029400740AA4FFACF08EF0740AA42CFEACF050E7
:1002A400010C8DF0740AA42CFDE435F0F208DBDEB9
:0302B400740722AA
:1002B700020170E86480F8E933E83360110460F004
:1002C700ED33EC337009E8FCE9FDEAFEEBFF2204AD
:1002D70060DED3EB9FEA9EE99DE8C2E78CF0C2F7A8
:1002E70095F0400CE8CCF8E9CDF9EACEFAEBCFFB74
:1002F70012013B85D0F05804700320D5B3E8047091
:10030700075002B2D502017A92D5EC0460F7E4CC2B
:10031700C0E0C398F8603B94186008400DD0E0FB3C
:10032700020152E4FBFAC9FC8028E830E406E4C97C
:10033700FBE4CAFCE830E305E4C9CACBFCE8540790
:100347006010F8C3E913F9EA13FAEB13FBEC13FC9B
:10035700D8F130F52FC3E49CFCEF9BFFEE9AFEED3E
:1003670099FDD0E0FBEF4E4D4C701222DB030201EA
:1003770077EC2CFCEF33FFEE33FEED33FDED30E78A
:10038700EB020152EF2BFFEE3AFEED39FDD0E0FB19
:1003970050130BBB000302017AED13FDEE13FEEFC2
:0803A70013FFEC13FC020152EC
:1003AF00EC4D6011E8497017ED33EC3304600DE448
:1003BF00FCFFFEFD22E933E8330470F802017012EE
:1003CF00013B58046009E4CC2481500628500902EF
:1003DF00017A284003020177C0E0EB4A7044B980EC
:1003EF0006D0E0FB020166EF4E701CBD8008EBFFEC
:1003FF00EAFEE9FD80EBE98DF0A4FEE5F00204983A
:10040F00E9CDF9EAFEEBFFEF89F0A4FCE5F0CE8928
:10041F00F0A42EFFE435F0CD89F0A42DFEE435F0E5
:10042F008067EF4E7005BD80D780C3EF8BF0A4AC13
:10043F00F0EE8BF0A42CFCE435F0F8EF8AF0A42C4E
:10044F00E5F038FCE433CB8DF0A42CFCE5F03BF861
:10045F00EE8AF0A42CFCE5F038F8E433CF89F0A451
:10046F002CFCE5F038CF3400CE89F0A42FFFE5F057
:10047F003EFEE433C98DF0A42EFEE5F039CD8AF0AF
:10048F00A42FFFE5F03EFEE43DFD33D0E0FB500727
:10049F000BBB000F02017AEC2CFCEF33FFEE33FEA7
:0604AF00ED33FD020152D5
:1004B5003F8000004120000042C80000447A00004F
:1004C500461C400047C35000497424004B189680D1
:1004D5004CBEBC205A0E1BCA6753C21C749DC5AEC8
:1004E500FB60065407601C2323120513EB54386088
:1004F500091204FF12050E1203AFECF8EDF9EEFA3E
:10050500EFCB22EB12050E80F1543803241C900426
:10051500B5FE93FC0EEE93FD0EEE930ECE93FF22E9
:101A120002064EE493A3F8E493A34003F68001F296
:101A220008DFF48029E493A3F85407240CC8C333D5
:101A3200C4540F4420C8834004F456800146F6DFA4
:101A4200E4800B0102040810204080901F1AE47EFB
:101A5200019360BCA3FF543F30E509541FFEE49399
:101A6200A360010ECF54C025E060A840B8E493A360
:101A7200FAE493A3F8E493A3C8C582C8CAC583CA8B
:101A8200F0A3C8C582C8CAC583CADFE9DEE780BE43
:011F5F000081
:10052500BB010689828A83E0225002E722BBFE02D4
:09053500E32289828A83E4932207
:10053E00BB010CE58229F582E5833AF583E0225072
:10054E0006E92582F8E622BBFE06E92582F8E222BC
:0D055E00E58229F582E5833AF583E49322D6
:10056B00BB010689828A83F0225002F722BBFE016F
:02057B00F32269
:10057D00EF8DF0A4A8F0CF8CF0A428CE8DF0A42E92
:02058D00FE224C
:10058F00BC000BBE0029EF8DF084FFADF022E4CC50
:10059F00F875F008EF2FFFEE33FEEC33FCEE9DEC19
:1005AF00984005FCEE9DFE0FD5F0E9E4CEFD22ED5F
:1005BF00F8F5F0EE8420D21CFEADF075F008EF2FA9
:1005CF00FFED33FD4007985006D5F0F222C398FD9A
:0505DF000FD5F0EA2237
:0E05E400C3E49FFFE49EFEE49DFDE49CFC2228
:1005F200EB9FF5F0EA9E42F0E99D42F0E89C45F05F
:0106020022D5
:0C060300ECF208EDF208EEF208EFF22233
:10060F00FAE2FB0808E2F925F0F218E2CA3AF22200
:09061F00EBF208EAF208E9F2220C
:10062800D083D082F8E4937012740193700DA3A361
:1006380093F8740193F5828883E473740293686075
:06064800EFA3A3A380DF75
:1020A400EFB40A07740D1220AF740A309811A8997E
:1020B400B8130CC2983098FDA899C298B811F6309C
:0720C40099FDC299F5992274
:00000001FF
